{
  "_format": "hh-sol-artifact-1",
  "contractName": "Blog",
  "sourceName": "contracts/Blog.sol",
  "abi": [
    {
      "inputs": [
        {
          "internalType": "string",
          "name": "_name",
          "type": "string"
        }
      ],
      "stateMutability": "nonpayable",
      "type": "constructor"
    },
    {
      "anonymous": false,
      "inputs": [
        {
          "indexed": false,
          "internalType": "uint256",
          "name": "id",
          "type": "uint256"
        },
        {
          "indexed": false,
          "internalType": "string",
          "name": "title",
          "type": "string"
        },
        {
          "indexed": false,
          "internalType": "string",
          "name": "hash",
          "type": "string"
        }
      ],
      "name": "PostCreated",
      "type": "event"
    },
    {
      "anonymous": false,
      "inputs": [
        {
          "indexed": false,
          "internalType": "uint256",
          "name": "id",
          "type": "uint256"
        },
        {
          "indexed": false,
          "internalType": "string",
          "name": "title",
          "type": "string"
        },
        {
          "indexed": false,
          "internalType": "string",
          "name": "hash",
          "type": "string"
        },
        {
          "indexed": false,
          "internalType": "bool",
          "name": "published",
          "type": "bool"
        }
      ],
      "name": "PostUpdated",
      "type": "event"
    },
    {
      "inputs": [
        {
          "internalType": "string",
          "name": "title",
          "type": "string"
        },
        {
          "internalType": "string",
          "name": "hash",
          "type": "string"
        }
      ],
      "name": "createPost",
      "outputs": [],
      "stateMutability": "nonpayable",
      "type": "function"
    },
    {
      "inputs": [
        {
          "internalType": "string",
          "name": "hash",
          "type": "string"
        }
      ],
      "name": "fetchPost",
      "outputs": [
        {
          "components": [
            {
              "internalType": "uint256",
              "name": "id",
              "type": "uint256"
            },
            {
              "internalType": "string",
              "name": "title",
              "type": "string"
            },
            {
              "internalType": "string",
              "name": "content",
              "type": "string"
            },
            {
              "internalType": "bool",
              "name": "published",
              "type": "bool"
            }
          ],
          "internalType": "struct Blog.Post",
          "name": "",
          "type": "tuple"
        }
      ],
      "stateMutability": "view",
      "type": "function"
    },
    {
      "inputs": [],
      "name": "fetchPosts",
      "outputs": [
        {
          "components": [
            {
              "internalType": "uint256",
              "name": "id",
              "type": "uint256"
            },
            {
              "internalType": "string",
              "name": "title",
              "type": "string"
            },
            {
              "internalType": "string",
              "name": "content",
              "type": "string"
            },
            {
              "internalType": "bool",
              "name": "published",
              "type": "bool"
            }
          ],
          "internalType": "struct Blog.Post[]",
          "name": "",
          "type": "tuple[]"
        }
      ],
      "stateMutability": "view",
      "type": "function"
    },
    {
      "inputs": [],
      "name": "name",
      "outputs": [
        {
          "internalType": "string",
          "name": "",
          "type": "string"
        }
      ],
      "stateMutability": "view",
      "type": "function"
    },
    {
      "inputs": [],
      "name": "owner",
      "outputs": [
        {
          "internalType": "address",
          "name": "",
          "type": "address"
        }
      ],
      "stateMutability": "view",
      "type": "function"
    },
    {
      "inputs": [
        {
          "internalType": "address",
          "name": "newOwner",
          "type": "address"
        }
      ],
      "name": "transferOwnership",
      "outputs": [],
      "stateMutability": "nonpayable",
      "type": "function"
    },
    {
      "inputs": [
        {
          "internalType": "string",
          "name": "_name",
          "type": "string"
        }
      ],
      "name": "updateName",
      "outputs": [],
      "stateMutability": "nonpayable",
      "type": "function"
    },
    {
      "inputs": [
        {
          "internalType": "uint256",
          "name": "postId",
          "type": "uint256"
        },
        {
          "internalType": "string",
          "name": "title",
          "type": "string"
        },
        {
          "internalType": "string",
          "name": "hash",
          "type": "string"
        },
        {
          "internalType": "bool",
          "name": "published",
          "type": "bool"
        }
      ],
      "name": "updatePost",
      "outputs": [],
      "stateMutability": "nonpayable",
      "type": "function"
    }
  ],
  "bytecode": "0x60806040523480156200001157600080fd5b5060405162001f5438038062001f5483398181016040528101906200003791906200037b565b6200007e6040518060400160405280601981526020017f4465706c6f79696e6720426c6f672077697468206e616d653a0000000000000081525082620000d860201b60201c565b80600090816200008f919062000617565b5033600160006101000a81548173ffffffffffffffffffffffffffffffffffffffff021916908373ffffffffffffffffffffffffffffffffffffffff16021790555050620007ba565b6200017a8282604051602401620000f192919062000750565b6040516020818303038152906040527f4b5c4277000000000000000000000000000000000000000000000000000000007bffffffffffffffffffffffffffffffffffffffffffffffffffffffff19166020820180517bffffffffffffffffffffffffffffffffffffffffffffffffffffffff83818316178352505050506200017e60201b60201c565b5050565b620001a4816200019f620001a760201b62000a2417620001c860201b60201c565b60201c565b50565b60006a636f6e736f6c652e6c6f679050600080835160208501845afa505050565b620001dc60201b62000a7217819050919050565b620001e66200078b565b565b6000604051905090565b600080fd5b600080fd5b600080fd5b600080fd5b6000601f19601f8301169050919050565b7f4e487b7100000000000000000000000000000000000000000000000000000000600052604160045260246000fd5b620002518262000206565b810181811067ffffffffffffffff8211171562000273576200027262000217565b5b80604052505050565b600062000288620001e8565b905062000296828262000246565b919050565b600067ffffffffffffffff821115620002b957620002b862000217565b5b620002c48262000206565b9050602081019050919050565b60005b83811015620002f1578082015181840152602081019050620002d4565b60008484015250505050565b6000620003146200030e846200029b565b6200027c565b90508281526020810184848401111562000333576200033262000201565b5b62000340848285620002d1565b509392505050565b600082601f83011262000360576200035f620001fc565b5b815162000372848260208601620002fd565b91505092915050565b600060208284031215620003945762000393620001f2565b5b600082015167ffffffffffffffff811115620003b557620003b4620001f7565b5b620003c38482850162000348565b91505092915050565b600081519050919050565b7f4e487b7100000000000000000000000000000000000000000000000000000000600052602260045260246000fd5b600060028204905060018216806200041f57607f821691505b602082108103620004355762000434620003d7565b5b50919050565b60008190508160005260206000209050919050565b60006020601f8301049050919050565b600082821b905092915050565b6000600883026200049f7fffffffffffffffffffffffffffffffffffffffffffffffffffffffffffffffff8262000460565b620004ab868362000460565b95508019841693508086168417925050509392505050565b6000819050919050565b6000819050919050565b6000620004f8620004f2620004ec84620004c3565b620004cd565b620004c3565b9050919050565b6000819050919050565b6200051483620004d7565b6200052c6200052382620004ff565b8484546200046d565b825550505050565b600090565b6200054362000534565b6200055081848462000509565b505050565b5b8181101562000578576200056c60008262000539565b60018101905062000556565b5050565b601f821115620005c75762000591816200043b565b6200059c8462000450565b81016020851015620005ac578190505b620005c4620005bb8562000450565b83018262000555565b50505b505050565b600082821c905092915050565b6000620005ec60001984600802620005cc565b1980831691505092915050565b6000620006078383620005d9565b9150826002028217905092915050565b6200062282620003cc565b67ffffffffffffffff8111156200063e576200063d62000217565b5b6200064a825462000406565b620006578282856200057c565b600060209050601f8311600181146200068f57600084156200067a578287015190505b620006868582620005f9565b865550620006f6565b601f1984166200069f866200043b565b60005b82811015620006c957848901518255600182019150602085019450602081019050620006a2565b86831015620006e95784890151620006e5601f891682620005d9565b8355505b6001600288020188555050505b505050505050565b600082825260208201905092915050565b60006200071c82620003cc565b620007288185620006fe565b93506200073a818560208601620002d1565b620007458162000206565b840191505092915050565b600060408201905081810360008301526200076c81856200070f565b905081810360208301526200078281846200070f565b90509392505050565b7f4e487b7100000000000000000000000000000000000000000000000000000000600052605160045260246000fd5b61178a80620007ca6000396000f3fe608060405234801561001057600080fd5b50600436106100885760003560e01c80638da5cb5b1161005b5780638da5cb5b14610113578063abaddd7f14610131578063cd349fe91461014f578063f2fde38b1461016b57610088565b806306fdde031461008d578063392338f5146100ab57806344828659146100c757806384da92a7146100f7575b600080fd5b610095610187565b6040516100a29190610b36565b60405180910390f35b6100c560048036038101906100c09190610ca1565b610215565b005b6100e160048036038101906100dc9190610d19565b6103ac565b6040516100ee9190610e4a565b60405180910390f35b610111600480360381019061010c9190610d19565b61052d565b005b61011b610540565b6040516101289190610ead565b60405180910390f35b610139610566565b6040516101469190610ff4565b60405180910390f35b6101696004803603810190610164919061106e565b610792565b005b61018560048036038101906101809190611139565b610986565b005b6000805461019490611195565b80601f01602080910402602001604051908101604052809291908181526020018280546101c090611195565b801561020d5780601f106101e25761010080835404028352916020019161020d565b820191906000526020600020905b8154815290600101906020018083116101f057829003601f168201915b505050505081565b600160009054906101000a900473ffffffffffffffffffffffffffffffffffffffff1673ffffffffffffffffffffffffffffffffffffffff163373ffffffffffffffffffffffffffffffffffffffff161461026f57600080fd5b6102796002610a45565b60006102856002610a64565b90506000600360008381526020019081526020016000209050818160000181905550838160010190816102b89190611372565b5060018160030160006101000a81548160ff021916908315150217905550828160020190816102e79190611372565b50806004846040516102f99190611480565b9081526020016040518091039020600082015481600001556001820181600101908161032591906114ad565b506002820181600201908161033a91906114ad565b506003820160009054906101000a900460ff168160030160006101000a81548160ff0219169083151502179055509050507fe6851f0b99a9d86e5d68a97f65218980851216ce297f789c6b6b7e82ca1d90c882858560405161039e939291906115a4565b60405180910390a150505050565b6103b4610a7c565b6004826040516103c49190611480565b9081526020016040518091039020604051806080016040529081600082015481526020016001820180546103f790611195565b80601f016020809104026020016040519081016040528092919081815260200182805461042390611195565b80156104705780601f1061044557610100808354040283529160200191610470565b820191906000526020600020905b81548152906001019060200180831161045357829003601f168201915b5050505050815260200160028201805461048990611195565b80601f01602080910402602001604051908101604052809291908181526020018280546104b590611195565b80156105025780601f106104d757610100808354040283529160200191610502565b820191906000526020600020905b8154815290600101906020018083116104e557829003601f168201915b505050505081526020016003820160009054906101000a900460ff1615151515815250509050919050565b806000908161053c9190611372565b5050565b600160009054906101000a900473ffffffffffffffffffffffffffffffffffffffff1681565b606060006105746002610a64565b905060008167ffffffffffffffff81111561059257610591610b76565b5b6040519080825280602002602001820160405280156105cb57816020015b6105b8610a7c565b8152602001906001900390816105b05790505b50905060005b828110156107895760006001826105e89190611618565b90506000600360008381526020019081526020016000209050806040518060800160405290816000820154815260200160018201805461062790611195565b80601f016020809104026020016040519081016040528092919081815260200182805461065390611195565b80156106a05780601f10610675576101008083540402835291602001916106a0565b820191906000526020600020905b81548152906001019060200180831161068357829003601f168201915b505050505081526020016002820180546106b990611195565b80601f01602080910402602001604051908101604052809291908181526020018280546106e590611195565b80156107325780601f1061070757610100808354040283529160200191610732565b820191906000526020600020905b81548152906001019060200180831161071557829003601f168201915b505050505081526020016003820160009054906101000a900460ff1615151515815250508484815181106107695761076861164c565b5b6020026020010181905250505080806107819061167b565b9150506105d1565b50809250505090565b600160009054906101000a900473ffffffffffffffffffffffffffffffffffffffff1673ffffffffffffffffffffffffffffffffffffffff163373ffffffffffffffffffffffffffffffffffffffff16146107ec57600080fd5b6000600360008681526020019081526020016000209050838160010190816108149190611372565b50818160030160006101000a81548160ff021916908315150217905550828160020190816108429190611372565b508060036000878152602001908152602001600020600082015481600001556001820181600101908161087591906114ad565b506002820181600201908161088a91906114ad565b506003820160009054906101000a900460ff168160030160006101000a81548160ff021916908315150217905550905050806004846040516108cc9190611480565b908152602001604051809103902060008201548160000155600182018160010190816108f891906114ad565b506002820181600201908161090d91906114ad565b506003820160009054906101000a900460ff168160030160006101000a81548160ff0219169083151502179055509050507f9f8eb93fc073102bbd3072664634ab200707a4f11d94aace9cc8d0e4d019eff5816000015485858560405161097794939291906116d2565b60405180910390a15050505050565b600160009054906101000a900473ffffffffffffffffffffffffffffffffffffffff1673ffffffffffffffffffffffffffffffffffffffff163373ffffffffffffffffffffffffffffffffffffffff16146109e057600080fd5b80600160006101000a81548173ffffffffffffffffffffffffffffffffffffffff021916908373ffffffffffffffffffffffffffffffffffffffff16021790555050565b60006a636f6e736f6c652e6c6f679050600080835160208501845afa505050565b6001816000016000828254610a5a9190611618565b9250508190555050565b600081600001549050919050565b610a7a611725565b565b60405180608001604052806000815260200160608152602001606081526020016000151581525090565b600081519050919050565b600082825260208201905092915050565b60005b83811015610ae0578082015181840152602081019050610ac5565b60008484015250505050565b6000601f19601f8301169050919050565b6000610b0882610aa6565b610b128185610ab1565b9350610b22818560208601610ac2565b610b2b81610aec565b840191505092915050565b60006020820190508181036000830152610b508184610afd565b905092915050565b6000604051905090565b600080fd5b600080fd5b600080fd5b600080fd5b7f4e487b7100000000000000000000000000000000000000000000000000000000600052604160045260246000fd5b610bae82610aec565b810181811067ffffffffffffffff82111715610bcd57610bcc610b76565b5b80604052505050565b6000610be0610b58565b9050610bec8282610ba5565b919050565b600067ffffffffffffffff821115610c0c57610c0b610b76565b5b610c1582610aec565b9050602081019050919050565b82818337600083830152505050565b6000610c44610c3f84610bf1565b610bd6565b905082815260208101848484011115610c6057610c5f610b71565b5b610c6b848285610c22565b509392505050565b600082601f830112610c8857610c87610b6c565b5b8135610c98848260208601610c31565b91505092915050565b60008060408385031215610cb857610cb7610b62565b5b600083013567ffffffffffffffff811115610cd657610cd5610b67565b5b610ce285828601610c73565b925050602083013567ffffffffffffffff811115610d0357610d02610b67565b5b610d0f85828601610c73565b9150509250929050565b600060208284031215610d2f57610d2e610b62565b5b600082013567ffffffffffffffff811115610d4d57610d4c610b67565b5b610d5984828501610c73565b91505092915050565b6000819050919050565b610d7581610d62565b82525050565b600082825260208201905092915050565b6000610d9782610aa6565b610da18185610d7b565b9350610db1818560208601610ac2565b610dba81610aec565b840191505092915050565b60008115159050919050565b610dda81610dc5565b82525050565b6000608083016000830151610df86000860182610d6c565b5060208301518482036020860152610e108282610d8c565b91505060408301518482036040860152610e2a8282610d8c565b9150506060830151610e3f6060860182610dd1565b508091505092915050565b60006020820190508181036000830152610e648184610de0565b905092915050565b600073ffffffffffffffffffffffffffffffffffffffff82169050919050565b6000610e9782610e6c565b9050919050565b610ea781610e8c565b82525050565b6000602082019050610ec26000830184610e9e565b92915050565b600081519050919050565b600082825260208201905092915050565b6000819050602082019050919050565b6000608083016000830151610f0c6000860182610d6c565b5060208301518482036020860152610f248282610d8c565b91505060408301518482036040860152610f3e8282610d8c565b9150506060830151610f536060860182610dd1565b508091505092915050565b6000610f6a8383610ef4565b905092915050565b6000602082019050919050565b6000610f8a82610ec8565b610f948185610ed3565b935083602082028501610fa685610ee4565b8060005b85811015610fe25784840389528151610fc38582610f5e565b9450610fce83610f72565b925060208a01995050600181019050610faa565b50829750879550505050505092915050565b6000602082019050818103600083015261100e8184610f7f565b905092915050565b61101f81610d62565b811461102a57600080fd5b50565b60008135905061103c81611016565b92915050565b61104b81610dc5565b811461105657600080fd5b50565b60008135905061106881611042565b92915050565b6000806000806080858703121561108857611087610b62565b5b60006110968782880161102d565b945050602085013567ffffffffffffffff8111156110b7576110b6610b67565b5b6110c387828801610c73565b935050604085013567ffffffffffffffff8111156110e4576110e3610b67565b5b6110f087828801610c73565b925050606061110187828801611059565b91505092959194509250565b61111681610e8c565b811461112157600080fd5b50565b6000813590506111338161110d565b92915050565b60006020828403121561114f5761114e610b62565b5b600061115d84828501611124565b91505092915050565b7f4e487b7100000000000000000000000000000000000000000000000000000000600052602260045260246000fd5b600060028204905060018216806111ad57607f821691505b6020821081036111c0576111bf611166565b5b50919050565b60008190508160005260206000209050919050565b60006020601f8301049050919050565b600082821b905092915050565b6000600883026112287fffffffffffffffffffffffffffffffffffffffffffffffffffffffffffffffff826111eb565b61123286836111eb565b95508019841693508086168417925050509392505050565b6000819050919050565b600061126f61126a61126584610d62565b61124a565b610d62565b9050919050565b6000819050919050565b61128983611254565b61129d61129582611276565b8484546111f8565b825550505050565b600090565b6112b26112a5565b6112bd818484611280565b505050565b5b818110156112e1576112d66000826112aa565b6001810190506112c3565b5050565b601f821115611326576112f7816111c6565b611300846111db565b8101602085101561130f578190505b61132361131b856111db565b8301826112c2565b50505b505050565b600082821c905092915050565b60006113496000198460080261132b565b1980831691505092915050565b60006113628383611338565b9150826002028217905092915050565b61137b82610aa6565b67ffffffffffffffff81111561139457611393610b76565b5b61139e8254611195565b6113a98282856112e5565b600060209050601f8311600181146113dc57600084156113ca578287015190505b6113d48582611356565b86555061143c565b601f1984166113ea866111c6565b60005b82811015611412578489015182556001820191506020850194506020810190506113ed565b8683101561142f578489015161142b601f891682611338565b8355505b6001600288020188555050505b505050505050565b600081905092915050565b600061145a82610aa6565b6114648185611444565b9350611474818560208601610ac2565b80840191505092915050565b600061148c828461144f565b915081905092915050565b6000815490506114a681611195565b9050919050565b8181036114bb575050611593565b6114c482611497565b67ffffffffffffffff8111156114dd576114dc610b76565b5b6114e78254611195565b6114f28282856112e5565b6000601f831160018114611521576000841561150f578287015490505b6115198582611356565b86555061158c565b601f19841661152f876111c6565b965061153a866111c6565b60005b828110156115625784890154825560018201915060018501945060208101905061153d565b8683101561157f578489015461157b601f891682611338565b8355505b6001600288020188555050505b5050505050505b565b61159e81610d62565b82525050565b60006060820190506115b96000830186611595565b81810360208301526115cb8185610afd565b905081810360408301526115df8184610afd565b9050949350505050565b7f4e487b7100000000000000000000000000000000000000000000000000000000600052601160045260246000fd5b600061162382610d62565b915061162e83610d62565b9250828201905080821115611646576116456115e9565b5b92915050565b7f4e487b7100000000000000000000000000000000000000000000000000000000600052603260045260246000fd5b600061168682610d62565b91507fffffffffffffffffffffffffffffffffffffffffffffffffffffffffffffffff82036116b8576116b76115e9565b5b600182019050919050565b6116cc81610dc5565b82525050565b60006080820190506116e76000830187611595565b81810360208301526116f98186610afd565b9050818103604083015261170d8185610afd565b905061171c60608301846116c3565b95945050505050565b7f4e487b7100000000000000000000000000000000000000000000000000000000600052605160045260246000fdfea2646970667358221220935fd603a91525c73290d9353f8720d77bd3cd75109bf5294f4187d00b18f8f164736f6c63430008140033",
  "linkReferences": {},
  "deployedLinkReferences": {}
}